:020000040800F2
:10000000D805002001010008072200085D20000833
:1000100005220008E90B000819290008000000006B
:10002000000000000000000000000000A523000800
:10003000230C00080000000049220008A723000844
:100040001B0100081B0100081B0100081B01000820
:100050001B0100081B0100081B0100081B01000810
:100060001B0100081B0100081B0100081B01000800
:100070001B0100081B010008ED0B00081B01000814
:100080001B0100081B0100081B0100081B010008E0
:100090001B0100081B0100081B0100081B010008D0
:1000A0001B010008412400081B0100081B01000877
:1000B0004D240008592400081B0100081B010008FA
:1000C0001B0100081B0100081B0100081B010008A0
:1000D0001B0100080D2900081B0100081B01000876
:1000E0001B0100081B0100081B010008DFF80CD0F1
:1000F00000F02AFC0048004735330008D8050020EE
:100100000648804706480047FEE7FEE7FEE7FEE7B1
:10011000FEE7FEE7FEE7FEE7FEE7FEE7F92300085D
:10012000ED000008202A04DB203A21FA02F0002129
:10013000704721FA02F3D040C2F1200291400843F7
:1001400019467047D2B201E000F8012B491EFBD2DC
:1001500070470022F6E710B513460A4604461946D2
:10016000FFF7F0FF204610BDF0B480EA0102D40F83
:100170004200B2EB410F02D20246084611464A0045
:1001800042D0C30DDDB2C1F3C752AD1A202D35DA0E
:10019000C1F3160141F4000204B15242C5F1200638
:1001A00002FA06F12A411044B3EBD05F23D0C4B168
:1001B000012DA0EBC35009DCF0BC4FF0004202EA75
:1001C000C352DBB200F5000000F0E2BA400000F1DB
:1001D000807000EBC350A0F1807040EAD1704900FC
:1001E00009E0490841EAC071A0EBC35000F50000E6
:1001F000400800EBC350F0BC00F0C1BA61420122DC
:1002000002EB4101001BF6E7F0BC704781F00041B2
:10021000AAE780F00040A7E780EA010210B502F0EB
:100220000043400022D04A001FD0010E01EB1261B2
:10023000C0F35600C2F3560240F4000042F400023C
:10024000A0FB022000047F39140400D0401C50EAB7
:10025000124001D44000491EC2B20C0604EBD0107B
:10026000401C4008802A02D003E0002010BD20F08E
:100270000100002900DA0020184310BD30B480EAE4
:10028000010202F0004530F0004221F0004013D09E
:1002900090B1C30DD40DC2F31601C0F31600E41AD9
:1002A00041F4000140F400027D34914201D3641C0A
:1002B00000E04900002C02DA30BC002070474FF407
:1002C00000000023914201D3891A034340084FEAFA
:1002D0004101F7D151B1914202D14FF0004105E007
:1002E00002D24FF0010101E06FF0010103EBC450B5
:1002F000284430BC00F043BA420005D0C0F3C752D6
:100300005242914201DC0020704700EBC15070471F
:100310002DE9FE4F804681EA0300C00F0C46009095
:1003200021F0004123F00045B8EB0200A94105D2BD
:100330004046214690461C460B46024623F00040AC
:10034000104347D0270DC7F30A00C3F30A510290A8
:10035000401A019040286BDAC3F3130040F4801B6D
:100360000098924620B10023D2EB030A63EB0B0BFB
:1003700001985946C0F14002504600F0DFF90646A8
:100380000D4650465946019A00F0E7F910EB080077
:100390006141002487EA115284EAE7731A4340D08E
:1003A000009A62B3019A012A4FEA075215DC001B3A
:1003B00061EB02014FF0004202EA0752CDE9004230
:1003C000001C41F5801132462B4600F01EFA03B0A6
:1003D000BDE8F08F40462146F9E7001B61EB0201C2
:1003E000001C41F5801300185B412018A2F500178E
:1003F00047EB030140EAD570B6196D4111E06D0875
:100400004FEA360645EAC0754FEA0752001B61EB1A
:100410000201001C41F5801149084FEA3000001923
:10042000514132462B4603B0BDE8F04F00F0DEB933
:100430000098012240000023D0EB020263EBE0733E
:10044000009821464FEAE074B8EB000061EB04012C
:10045000E9E783F000435BE781F0004158E72DE9CD
:10046000FE4F81EA030404F0004421F000410094AF
:100470004FF0000B23F0004350EA01045ED052EA33
:1004800003045BD0C3F30A54C1F30A552C44A4F20D
:10049000F3340194A0FB0254C1F3130141F4801121
:1004A000C3F3130343F4801301FB024400FB034E28
:1004B000840A970A44EA815447EA8357A4FB0768F1
:1004C00002958D0A05FB07854FEA932C04FB0C541B
:1004D0002705029D4FEA065847EA1637B5EB08058F
:1004E0006EEB070C870E920E47EA811742EA8312E1
:1004F000A7FB0201B6EB0B0164EB00042B0D43EAF2
:100500000C335E1844EB1C50DA465146E7FB0201FF
:10051000C5F313044FEA0B3343EA14534FEA043292
:10052000019C43EA0603A4F10C040294009CCDE96B
:1005300000B400F06AF903B0BDE8F08F0020014676
:10054000F9E72DE9F04D81EA030404F0004B21F0B6
:10055000004514464FF0000A23F0004150EA05021E
:1005600020D054EA01021DD0C5F30A570246C5F354
:100570001303C1F31300C1F30A5640F4801543F48A
:100580008013A7EB0608101BD64608F2FD3873EB64
:10059000050002D308F1010801E092185B41B8F1AF
:1005A000000F03DA00200146BDE8F08D00204FF473
:1005B0008011064684460EE0171B73EB050705D332
:1005C000121B63EB050306434CEA010C49084FEA92
:1005D000300092185B4150EA0107EDD152EA030066
:1005E00012D082EA040083EA0501084305D0101BFB
:1005F000AB4106D20122002306E000224FF0004367
:1006000002E06FF0010253101AEB06004CEB0851A8
:1006100010EB0A0041EB0B01BDE8F04D00F0E6B82D
:1006200070B521F0004303430CD0C1F30A550024F8
:10063000D5EB040564EB0403D617AD1AB34102DB16
:100640000020014670BD201841EB025170BDC10F62
:1006500080EAE0700844CA079623002100F098B8A9
:1006600096230022114600F093B80EB5C10F80EA20
:10067000E0700844CA07002140F233438DE80E00C1
:100680000A460B4600F0C1F803B000BD20F0004060
:10069000C10DC0F3160040F400007F2901DA0020EC
:1006A0007047962903DCC1F19601C840704796391E
:1006B0008840704700F0004230F000400AD0C10D81
:1006C00001F56071C0F3160042EA0151C20840070B
:1006D0001143704700200146704701F0004330B4D9
:1006E00021F0004150EA010206D00A0DA2F5607225
:1006F000C1F31301002A02DC30BC00207047440F14
:1007000044EAC104C100E01830BC00EBC25000F064
:1007100036B80000002801DBC0F10040002901DBF1
:10072000C1F1004181427047002801DBC0F1004067
:10073000002901DBC1F1004188427047202A04DB17
:10074000203A00FA02F1002070479140C2F12003E4
:1007500020FA03F3194390407047202A06DBCB1799
:10076000203A41FA02F043EAE07306E041FA02F36C
:10077000D040C2F120029140084319467047002939
:10078000A8BF7047401C490008BF20F00100704717
:1007900010B4B0FA80FC00FA0CF050EA010404BF77
:1007A00010BC704749B1CCF1200421FA04F411FACD
:1007B0000CF118BF012121430843A3EB0C01CB1D11
:1007C0004FEA00614FEA102042BF002010BC704782
:1007D00000EBC35010440029A4BF10BC7047401C5C
:1007E000490008BF20F0010010BC704710B5141E6E
:1007F00073F1000408DA401C41F1000192185B41DA
:100800001A4301D120F0010010BD2DE9F04D9246B0
:100810009B4611B1B1FA81F202E0B0FA80F22032C7
:100820009046FFF78BFF04460F4640EA0A0041EA74
:100830000B0153465A46084313D0114653EA0100B0
:1008400019D0C8F140025046FFF76CFC05460E4631
:10085000504659464246FFF771FF084305D0012034
:1008600004E020463946BDE8F08D0020054346EA05
:10087000E0762C4337430A986305E40AA0EB0800AE
:100880000022FD0A44EA47540A3002D500200146FE
:10089000E9E7010510196941DDE9084500196941D9
:1008A000BDE8F04DA2E72DE9F04D00231A461B1AD2
:1008B0008A4103DB00200146BDE8F08DC1F30A52F6
:1008C000C1F3130141F480154FF0000BD10702D1A1
:1008D00000186D41521E0027044640F2FF113846B1
:1008E00001EB620A3E468046024600204FF480112A
:1008F000FFF718FCC2197141BB1846EB0100B4EBBD
:10090000030C75EB000C04D3E41A65EB00051746E5
:100910000E46241908F101006D4180463428E3DDBC
:10092000F91946EB0600091BA84103D24FF0FF322C
:10093000134601E0002213461BEB070046EB0A5169
:10094000BDE8F04DFFF752BF064C074D06E0E068EA
:1009500040F0010394E8070098471034AC42F6D306
:10096000FFF7C8FB60360008803600080EB540F27D
:10097000334102910021CDE900110A460B46FFF7F1
:1009800044FF03B000BD70B5C1F30A5201F0004549
:100990000024C1F3130140F2FF3341F480119A4265
:1009A00001DA002070BD40F233439A42A2F2334292
:1009B00003DC5242FFF7B6FB00E090402C43F1D03D
:1009C000404270BD2DE9F04F85B07C4800F08CFFAF
:1009D000DFF8E891002609F1C0093446C9F808603B
:1009E000C9F804607548C9F8006000F07DFF002573
:1009F00000F01AF9A9F5907A09F11C08CAF800006C
:100A000057466F49D8F80400FFF706FCB86101901B
:100A1000DFF8B0B147460090C1E000BF02F064FCCF
:100A2000AEBBDAF80010DAF818008846FFF7EEFBE4
:100A3000654A4946C9F80000904204D35F4A4032F3
:100A40001268946319E05D4B40F2865C40331B688A
:100A5000C3F838C04B6893420FD38B6893420CD3D2
:100A6000012D01D045B108E0DBE902329A1AB2F556
:100A70007A7F02D9022500E001254A688A60C9F818
:100A8000040050482430012D0168416002D0022D3D
:100A900019D07FE0DBF80C10584611B98168CBF80B
:100AA0000C1041460198FFF735FE02D2DAF800003B
:100AB0000190DAF800100098FFF736FE6AD2DAF8F3
:100AC0000000009066E0DBE90210081AFFF7C8FD9D
:100AD0000490DDE90010FFF799FBFFF7EBFD3B4ABF
:100AE0003B4BFFF7BCFC064688463A483A4902F0C1
:100AF000ADFB0222FFF794FD4FF0FF32FFF790FDB0
:100B000032464346FFF71DFDFFF7E7FDCAF80C002C
:100B100056463048304902F0A3FC804602912D48E9
:100B20002D4902F09DFC4246029BFFF798FC02F023
:100B300071FC804602912748274902F091FC424609
:100B4000029BFFF7E5FBCDE90201D6F80C80049982
:100B50004046FFF761FBFFF7ADFD204A204BFFF752
:100B6000F0FCDDE90223FFF77AFCFFF7B6FD414612
:100B70003061FFF783FB1B49FFF74EFB0146404600
:100B8000FFF77CFBB060C9F80840C9F804400126B3
:100B9000C9F80040094800F0B8FECBF80840388892
:100BA00001283FF43BAF012E04D105B0BDE8F04F62
:100BB00001F04CBB05B0BDE8F08F0000A0000020A4
:100BC0003333333F0000002000008080A7E8482E28
:100BD000FF2109408B6CE7FBA9F1F43FC2F5285CCB
:100BE0008FA293400000A040FEE70000014800F003
:100BF000AFB800009401002030B590F840500124B7
:100C0000AC40C56B6C60046863604368102B03687C
:100C100003D099600068C26030BD9A600068C1600E
:100C200030BD7047704700002DE9FF41204E002580
:100C30002A461021304600F0A2FA00246F46012215
:100C40002021304600F09BFA4021304600F092FA15
:100C50003855601E0C2809D2680005B24021304684
:100C600000F088FA012801D16D1C2DB2002220214C
:100C7000304600F084FA641C102CE0DB0D499DF82E
:100C80000D0008702846FFF7F0FC6FF00102FFF737
:100C9000C7FCFFF722FD044601221021304600F078
:100CA0006EFAC82000F064F904B02046BDE8F08177
:100CB000000801400000002010B590F82110002429
:100CC000022903D00421816301243DE001680A6800
:100CD00022F00E020A6001680A6822F001020A602E
:100CE0001A4A0168914201D1012121E0174A1432C8
:100CF000914201D110211BE0144A2832914201D1C6
:100D0000891515E0114A3C32914201D189140FE056
:100D10000E4A5032914202D14FF4803108E00B4A22
:100D20006432914202D14FF4801101E04FF08071A2
:100D3000064A083A5160012180F82110002180F80C
:100D40002010416B01B18847204610BD08000240C9
:100D50002DE9F05FC16B0C6801680B68D0F840C0EA
:100D6000042202FA0CF2494DDFF824A1494E4A4F01
:100D7000DFF828B1DFF828E122422CD05A072AD523
:100D80000A68920603D40A6822F004020A60016825
:100D9000A94201D1042219E0514501D1402215E0B8
:100DA000B14202D14FF4806210E0B94202D14FF457
:100DB00080420BE0594502D14FF4802206E0714594
:100DC00002D14FF4800201E04FF080622F490839D0
:100DD0004A60C16A3BE04FF0020808FA0CF818EAD2
:100DE000040F4FF000094FF0010235D05FEA83781D
:100DF00032D50B689B0605D40B6823F00A030B6001
:100E000080F821200168A94201D1022219E0514550
:100E100001D1202215E0B14202D14FF4007210E05E
:100E2000B94202D14FF400520BE0594502D14FF4C0
:100E3000003206E0714502D14FF4001201E04FF09C
:100E40000072124908394A6080F82090816A0029AE
:100E50001AD0BDE8F05F0847082505FA0CF52542D1
:100E600012D01B0710D50B6823F00E030B6090F80F
:100E70004010C36B02FA01F15960826380F82120AF
:100E800080F82090016BE2E7BDE8F09F0800024087
:100E90001C00024030000240440002405800024062
:100EA0006C00024030B528B308C813491422194415
:100EB000B1FBF2F18900C1631049816302214177DE
:100EC0001A6843F6F0718A43D0E900142143D0E94F
:100ED00002452C4321430469214344692143846929
:100EE00021431143196000214163012242770177B8
:100EF000084630BD012030BDF8FFFDBF00000240B4
:100F000070B5044690F82000002501280CD001207F
:100F100084F8200094F821600020012E06D084F887
:100F200020000225284670BD022070BD022684F8EC
:100F30002160A0632068066826F00106066020464E
:100F4000FFF75AFEE06A00282068016802D041F0ED
:100F50000E0106E021F0040101602068016841F003
:100F60000A0101602068016841F001010160D9E7D0
:100F700070B5044600F008F90546601C02D004482C
:100F80000078044400F000F9401BA042FAD370BD81
:100F90002C0000202DE9F84FDFF8B891002409F16A
:100FA000040A0AF1040B23460F270BF1040EC9E0D3
:100FB0000125A5402A40AA427DD1674ED1F804C040
:100FC000ACEB0608B44532D014DCBCF1030F3AD0C8
:100FD00009DCBCF1000F2AD0BCF1010F1CD0BCF120
:100FE000020F31D11DE0BCF1110F17D0BCF1120F6F
:100FF0002AD119E0B8F5881F19D006DCB8F5803F72
:1010000015D0B8F5801F1FD111E0B8F5001F0ED024
:10101000B8F5041F18D10AE0CB6815E0CB681B1D9A
:1010200012E0CB6808330FE0CB680C330CE08B6820
:101030002BB1012B4FF0080303D0456104E00423DA
:1010400002E0056100E00023FF2A01D8064601E026
:1010500000F104064FEA840501D9A5F12005D6F870
:10106000008007FA05FC28EA0C0803FA05F548EAAF
:101070000508C6F800804D68ED0062D5374DAE69B1
:1010800046F00106AE61AD6924F0030605F00105E6
:101090000095334D06EB050CDCF80850A607360F1B
:1010A00007FA06F825EA0805DFF8B880404503D1BD
:1010B0004FF0000817E044E0DFF8AC80404502D173
:1010C0004FF001080FE0DFF8A480404502D14FF057
:1010D000020808E0DFF89880404502D14FF003088D
:1010E00001E04FF0040808FA06F848EA0508CCF8D1
:1010F00008804D68D9F80060ED034D4601D51643D0
:1011000000E096432E604D68DAF80060AD03554666
:1011100001D5164300E096432E604D68DBF8006071
:10112000ED025D4601D5164300E096432E604D6802
:10113000DEF80060AD02754601D5164300E0964327
:101140002E60641C0D682A46E5407FF431AFBDE88F
:10115000F88F000000040140000011100010024050
:101160000000014000080140000C01400010014057
:10117000001401408068084000D0012070470AB187
:10118000016170470904FBE701488068704700006F
:101190002C00002002488168027811448160704769
:1011A0002C000020074810B5016841F010010160D3
:1011B000032000F075F8002000F006F800F024F895
:1011C000002010BD0020024070B50D4D04464FF4C4
:1011D0007A712878B1FBF0F00A490968B1FBF0F0A8
:1011E00000F0ECFA48B9102C07D200222146501E1C
:1011F00000F036F800206C6070BD012070BD00006A
:101200002C000020380000200C4808B5816941F00E
:1012100001018161816901F001010091C16941F021
:101220008051C161C06900F080500090044841685D
:1012300021F0E06141F00071416008BD0010024002
:1012400000000140002809DB00F01F02012191404D
:101250004009800000F1E020C0F800117047000054
:10126000F0B40E4B1B680C46C3F30223C3F1070511
:10127000042D00D90425191D072901D2002300E0FF
:10128000DB1E012606FA05F1491E214099409E40C9
:10129000761E16403143F0BC01F053BB0CED00E06C
:1012A000064900F0070208684FF6FF03184040EABD
:1012B0000220034A10430860704700000CED00E074
:1012C0000000FA052DE9F0470F46050061D0434EB6
:1012D000306800F00700B84209D2306820F00700FB
:1012E00038433060306800F00700B84251D12868B8
:1012F0003B4C810712D5400703D5606840F4E0609D
:1013000060602878000703D5606840F46050606032
:101310006068A96820F0F000084360602878C00782
:1013200028D06868012810D02168022810D08907C9
:1013300000292EDA616821F0030101436160FFF7A3
:1013400023FF804641F288390DE021688903EFE7E9
:101350008901EDE7FFF718FFA0EB0801494502D925
:101360000320BDE8F0876068696800F00C00B0EB0E
:10137000810FEFD1306800F00700B8420BD9306818
:1013800020F0070038433060306800F00700B842B2
:1013900001D00120E5E72878400705D56068E968B5
:1013A00020F4E060084360602878000706D5606894
:1013B000296920F4605040EAC100606000F038F80C
:1013C0006168084AC1F30311515CC84006490860CE
:1013D00006480068FFF7F8FE0020C2E70020024040
:1013E00000100240C4340008380000203000002003
:1013F0000448054900684968044AC1F30221515C68
:10140000C84070473800002000100240D434000863
:101410000448054900684968044AC1F3C221515C87
:10142000C84070473800002000100240D434000843
:1014300012A185B00FC98DE80F0014A0144A0068EE
:1014400004905168134801F00C03042B10D0082BB2
:101450000ED1C1F38343C9031DF803000AD55168B7
:1014600004AAC1F34041515C0A4A5043B0FBF1F079
:1014700005B0704708494843FAE700000203040535
:10148000060708090A0B0C0D0E0F101001020000D0
:101490000010024000127A0000093D002DE9F84FCB
:1014A000040070D02078C04DC00749D06868C0F3F0
:1014B0008100012807D06868C0F38100022809D1A3
:1014C0006868C00306D52868800339D5606800289D
:1014D000E7D035E06068B0F5803F0BD010B1B0F5D3
:1014E000A02F11D0286820F480302860286820F4CC
:1014F000802002E0286840F480302860606890B165
:10150000FFF742FE06460AE0286840F48020286083
:10151000F0E700BFFFF738FE801B642873D8286807
:101520008003F7D50CE0FFF72FFE064605E000BF6D
:10153000FFF72AFE801B6428F0D828688003F7D4C0
:1015400020789A4E80074FF001094FF0000839D5F6
:10155000686810F00C0F07D06868C0F3810002289B
:1015600009D16868C00306D42868800714D52069AB
:10157000012808D110E02069B0B1C6F80090FFF74B
:1015800003FE074605E00AE1FFF7FEFDC01B022847
:10159000C4D828688007F7D52868616920F0F8006A
:1015A00040EAC10028600DE0C6F80080FFF7ECFDBE
:1015B000074604E0FFF7E8FDC01B022823D828688F
:1015C0008007F7D4207800072CD57948A169D9B1D4
:1015D000C0F80090FFF7D8FD074604E0FFF7D4FD00
:1015E000C01B02280FD8686A8007F7D571484FF4EE
:1015F000FA510068B0FBF1F0009000BF0098411E66
:101600000091FAD20EE080E0C0F80080FFF7BCFD48
:10161000074604E0FFF7B8FDC01B022875D8686ACA
:101620008007F7D42078400760D5E8690027C0001C
:1016300008D4E86940F08050E861E869012700F0CB
:10164000805000905C480168C90513D40168834646
:1016500041F480710160FFF797FD824606E000BF0C
:10166000FFF792FDA0EB0A0064284ED8DBF80000DB
:10167000C005F5D5E06801280AD008B1052813D0C7
:10168000286A20F001002862286A20F0040002E0A5
:10169000286A40F001002862E06841F2883B98B176
:1016A000FFF772FD82460BE0286A40F004002862D2
:1016B000EEE700BFFFF768FDA0EB0A0159455AD8D5
:1016C000286A8007F6D50CE0FFF75EFD824605E04C
:1016D000FFF75AFDA0EB0A0159454CD8286A80074C
:1016E000F6D41FB1E86920F08050E861E06988B362
:1016F0006968C1F38101022944D00228C6F86080DC
:1017000004D0FFF741FD044638E034E0FFF73CFD2C
:10171000074604E0FFF738FDC01B02282BD82868D5
:101720008001F7D4206AB0F5803F05D16868A168D0
:1017300020F4003008436860D4E908010843696870
:1017400021F4741108436860C6F86090FFF71CFD2F
:10175000044606E025E000BFFFF716FD001B022847
:1017600009D828688001F7D51BE000BFFFF70CFD02
:10177000001B022802D90320BDE8F88F28688001E9
:10178000F4D40EE00128F7D06868226A00F48031B2
:10179000914204D1616A00F47010884201D00120A6
:1017A000EAE70020E8E700000010024000004242A3
:1017B00080044242380000200070004010B5401EF6
:1017C000B0F1807F01D3012010BD4FF0E0246061B3
:1017D0000F21601701F0B5F80020A06107202061FB
:1017E000002010BD7047704770B590F83C20012A6A
:1017F00019D0012400F83C4F0222427050F83C3CC2
:101800005A689D6822F070060A684968324325F0DC
:10181000800529435A6050F83C2C916044700021A7
:101820000170084670BD022070BD10B5040003D0E1
:1018300094F83D0010B107E0012010BD002084F8AD
:101840003C00204600F00CF8022084F83D00211DE9
:10185000206800F007FE012084F83D00002010BD44
:1018600008B51E4A01681E4891420ED1816941F4B3
:10187000006181618069052200F4006000901146DA
:101880001920FFF7EDFC192013E0B1F1804F14D0BF
:10189000144A914220D1C16941F00201C161C0697D
:1018A000002200F00200009011461D20FFF7D8FC36
:1018B0001D20BDE80840FFF7C5BCC16941F001012A
:1018C000C161C069002200F00100009011461C2097
:1018D000FFF7C6FC1C20ECE708BD0000002C01400F
:1018E00000100240000400400168CA6842F0010292
:1018F000CA600068816801F00701062903D0016809
:1019000041F001010160002070470168CA6822F0BF
:101910000102CA600068016A41F21112114207D146
:10192000016A9210114203D1016821F001010160A6
:101930000020704770B5044690F83C00012817D08D
:10194000012584F83C50022084F83D00206882681C
:1019500022F0770222F47F4282600868502830D05B
:101960000DDC20284DD005DC98B310283BD148E091
:10197000022070BD302844D0402834D139E060289E
:1019800028D0702806D0B0F5805F2CD0B0F5005F6D
:1019900029D10AE0CB68D1E90121206800F0A5FD3A
:1019A0002068816841F0770109E0CB68D1E9012125
:1019B000206800F09AFD2068816841F480418160D0
:1019C00011E0CA684968206800F044FE5021206890
:1019D00007E016E0CA684968206800F04CFE602104
:1019E000206800F08CFD84F83D50002084F83C0015
:1019F00070BDCA684968206800F02CFE402120684C
:101A0000EFE7226801461046EBE7704770B50446E1
:101A1000006801694FF00005C943890715D4C16802
:101A2000C943890711D4E91E01610120207720688C
:101A300080698007204602D0FFF7E7FF04E000F04E
:101A4000BFF8204600F041F9257720680169C943B5
:101A5000490717D4C168C943490713D46FF004017B
:101A60000161022020772068806910F4407F2046C1
:101A700002D0FFF7CAFF04E000F0A2F8204600F011
:101A800024F9257720680169C943090716D4C1687C
:101A9000C943090712D46FF00801016104202077BF
:101AA0002068C0698007204602D0FFF7AEFF04E03F
:101AB00000F086F8204600F008F9257720680169D3
:101AC000C943C90617D4C168C943C90613D46FF006
:101AD00010010161082020772068C06910F4407F60
:101AE000204602D0FFF791FF04E000F069F820469D
:101AF00000F0EBF8257720680169C943C90708D1D0
:101B0000C168C943C90704D1891E0161204600F09C
:101B1000F9F820680169C943090609D4C168C943B5
:101B2000090605D46FF0800101612046FFF75AFED7
:101B300020680169C943490609D4C168C9434906F7
:101B400005D46FF040010161204600F0FFF82068E5
:101B50000169C94389060BD4C168C943890607D402
:101B60006FF0200101612046BDE87040FFF73BBEE9
:101B700070BD000000B585B0002100910191029177
:101B8000039100680B49884211D10B48816941F0EB
:101B9000040181618069694600F00400049080209E
:101BA00000900220019003900448FFF7F3F905B07C
:101BB00000BD000000040040001002400008014089
:101BC000704770B5044690F83C000D4601280DD0D2
:101BD000012684F83C60022084F83D0042B1042ACA
:101BE00018D0082A2AD00C2A4DD139E0022070BD25
:101BF000206800F08DFC2068816941F00801816156
:101C00002068816921F004018161206881692A6965
:101C1000114311E0206800F0A3FC2068816941F4C1
:101C2000006181612068816921F48061816120689F
:101C300081692A6941EA0221816124E0206800F07B
:101C4000BBFC2068C16941F00801C1612068C1691D
:101C500021F00401C1612068C1692A69114311E0C2
:101C6000206800F0D5FC2068C16941F40061C161C1
:101C70002068C16921F48061C1612068C1692A6955
:101C800041EA0221C16184F83D60002084F83C00F3
:101C900070BD10B5040003D094F83D0010B107E00A
:101CA000012010BD002084F83C00204600F00CF814
:101CB000022084F83D00211D206800F0D3FB0120A4
:101CC00084F83D00002010BD7047704710B50446F1
:101CD0000068012200F0FCFB09492068884203D11A
:101CE000416C41F4004141642068816801F00701C2
:101CF000062903D0016841F001010160002010BDF8
:101D0000002C014002680F49B2F1804F02D18A686D
:101D1000521C8A600C4A00681268904210D10A482E
:101D20000A6920380368136083685360C36893604E
:101D30000069D06004482022C969C03000F04CB965
:101D400070470000000000206000002070477047CE
:101D500070B5026804461068D168536910F00F0F1F
:101D600050D003F0010501F4907635435DD0C207F1
:101D700005D0CA0503D5E26B42F00102E2634207D7
:101D800005D5DA0703D0E26B42F00202E263820774
:101D900005D5DA0703D0E26B42F00402E2630207E2
:101DA00005D5DA0703D0E26B42F00802E263E26B8A
:101DB000002A33D0800604D5880602D5204600F0DC
:101DC000CCFC20684069E16BC0F38010090700D4A7
:101DD00028B3204600F0AAFC2068416949061AD5BC
:101DE000416921F040014161606BA0B11B49416331
:101DF000606BFEF761FF002810D0606B416BBDE89F
:101E000070400847830610D58B060ED52046BDE8E6
:101E1000704000F0A2BC2046FFF799FF70BD20463D
:101E2000FFF795FF0020E06370BD030606D50B06A3
:101E300004D52046BDE8704000F036BD4006F3D51D
:101E40004806F1D5D168204621F04001D16020211B
:101E500084F8391000F000F970BD00009B260008DE
:101E600070B5040004D094F83900002510B106E0E4
:101E7000012070BD84F83850204600F023F824205B
:101E800084F839002068C16821F40051C1602046FF
:101E900000F0AEFC2068016921F4904101612068E6
:101EA000416921F02A0141612068C16841F4005173
:101EB000C160E563202084F8390084F83A000020EE
:101EC00070BD0000F0B585B000250646009501956F
:101ED0000295039500682549884244D124488169C8
:101EE00041F480418161816901F4804104918169FB
:101EF00041F00801816180691E4C00F008000490E7
:101F00004020009002200190032003906946204663
:101F1000FFF740F88027CDE9007569462046029515
:101F2000FFF738F81448416841F0E06141F00401DE
:101F30004160134C114801C41020A1C4104844F85A
:101F400010596561A561E561FEF7ACFF08B1FEF7C8
:101F500069FE34630022114625206662FFF780F98E
:101F60002520FFF76FF905B0F0BD000000380140F3
:101F700000100240000C01400000014044000240FB
:101F80009401002090F83A30202B22D1F9B1F2B11F
:101F900090F83830012B1CD081628285C2850021E7
:101FA000C163222280F83A2080F838100168CA689C
:101FB00042F48072CA6001684A6942F001024A61D3
:101FC0000068C16841F02001C16000207047012015
:101FD000704702207047704770B5044690F839008A
:101FE000202830D169B362B394F8380001282AD090
:101FF000012084F838002162A284E2840025E56390
:10200000212084F83900236B10489862236B104814
:10201000D862236B0F481863206B1346456326680C
:10202000206B321DFEF76CFF21686FF040000860E6
:1020300084F838502068416941F0800141610020F6
:1020400070BD012070BD022070BD0000F5260008A3
:1020500023270008AB26000870477047FEE7000002
:1020600030B585B000241C48009401940294039478
:10207000816941F020018161816901F020010491B1
:10208000816941F004018161816901F004010491D9
:10209000816941F0080181618069104D00F00800FC
:1020A0000490002230212846FFF769F83020009084
:1020B0000120CDE901040220039069462846FEF77D
:1020C00069FF4020CDE90004694628460294FEF7E6
:1020D00061FF05B030BD0000001002400008014063
:1020E00010B586B000241348009401940294039420
:1020F00004940F490594016041F61F41C0E90114A1
:1021000042F20F71C0E903148021C0E90541FFF7D5
:102110008CFB4FF48050009069460648FFF70AFC9C
:10212000049404A903480594FFF75EFB06B010BDB4
:10213000002C01406000002010B586B0002411483A
:10214000009401940294039404944FF08041059408
:10215000016040F2CF21C0E901146321C0E90314FA
:102160008461FFF762FB4FF4805000906946054898
:10217000FFF7E0FB049404A902480594FFF734FB41
:1021800006B010BDA000002010B58EB0002407944A
:10219000089409940A940B941C2168460C94FDF74A
:1021A000D8FF17481549016048F69F41C0E901145E
:1021B00040F69F71C0E903148461FFF736FB4FF4CA
:1021C0008050079007A90E48FFF7B4FB0C48FFF7B3
:1021D00060FD0B940BA90A480C94FFF705FB6020E7
:1021E000CDE9000402940422694605480494FFF7EF
:1021F000E8FC0348FFF7BEFC0EB010BD0004004031
:10220000E0000020FEE770472DE9F0410D4D4FF052
:10221000000805F19C04A4F59E764FF4C8670CE015
:1022200001F062F861683068FEF77EFA03D229682F
:10223000C1F8388001E02868876320880028EFD142
:10224000BDE8F081E0000020704700002DE9FC5F50
:102250005148FFF749FB504C0020C034A06060603B
:102260002060FEF7E1FCA4F5907108604B484169DD
:1022700080690A6902618A688260C968C16083E016
:1022800001F032F8444D7068603D2968FDF7BEFFEB
:102290002060D4F80490824601214846FEF72CF8CD
:1022A0005146FDF7B6FFA168FDF75EFF06463B48C5
:1022B00040688346FEF7CBF901462869FDF7DEFF4B
:1022C0003146FDF7A9FFFEF7F5F980460191494631
:1022D0005046FDF749FFFEF7EDF906460F46584612
:1022E000FEF7C3F900908B46A868FEF7E3F94FF0BC
:1022F000FF32FEF795F95B46009AFEF7B0F83246DA
:102300003B46FEF7ACF807460E4649465046FDF7F9
:102310007DFFE968FDF780FF204D24356968FDF7F2
:1023200023FFFEF7C7F93A463346FDF7F1FF424671
:10233000019BFDF7EDFFFEF7D0F92860C4E901A984
:10234000686010F1FF4F02D30020286004E04FF0D6
:102350007E51884200DD29602868FEF7ABF901F064
:1023600059F800220E4BFEF77AF8FEF7B6F90A4943
:102370006039C861FEF78AF9074940310968886306
:102380004FF4E160FEF7F4FD034EDC3630880028A0
:102390007FF476AFBDE8FC9FA00000200000002085
:1023A000000099407047FEF7F5BE30B58FB0282188
:1023B0006846FDF7CEFE14210AA8FDF7CAFE0121EA
:1023C0000804CDE900100024029402250491CDE90F
:1023D00007504FF4E01009906846FFF75FF80F20B0
:1023E000CDE90A056802CDE90C4002210AA80E9445
:1023F000FEF768FF0FB030BD0D48016841F00101E4
:10240000016041680B4A1140416001680A4A11406D
:102410000160016821F480210160416821F4FE011E
:1024200041604FF41F0181600449C0030860704798
:10243000001002400000FFF8FFFFF6FE08ED00E08C
:102440000148FFF7E3BA0000600000200148FFF7F1
:10245000DDBA0000A00000200148FFF7D7BA000055
:10246000E0000020F0B50268164B174C174D4FF0F6
:102470008047984205D0B84203D0A04201D0A8427C
:1024800003D122F070064A683243984205D0B84220
:1024900003D0A04201D0A84203D122F44074CA68FC
:1024A00022434C6922F08002224302608A68C262A1
:1024B0000A688262984201D1096901630121416180
:1024C000F0BD0000002C0140000400400008004066
:1024D00010B501F01F030121046A99408C43046286
:1024E000016A9A401143016210BD10B5846842EA46
:1024F000032224F47F440A432243826010BD826891
:1025000022F070020A4342F0070181607047000028
:1025100030B5026A22F001020262026A43688469ED
:1025200024F073050C682C4322F002058A682A43C4
:102530000A4DA8420BD122F00805CA6823F4407363
:102540002A434D6922F004021D438B692B434360EB
:10255000846149684163026230BD0000002C014083
:1025600030B5026A22F010020262026A436884698E
:102570000D6824F4E64444EA05248D6822F0200224
:1025800042EA05120B4DA8420ED1CD6822F080021E
:1025900042EA05124D6923F4406343EA85038D69DD
:1025A00022F0400243EA8503436084614968816305
:1025B000026230BD002C014030B5026A22F4807204
:1025C0000262036A4268C46923F4007324F073054D
:1025D0000C682C438D6843EA05230C4DA8420ED1AC
:1025E000CD6823F4006343EA05234D6922F4405289
:1025F00042EA05128D6923F4806342EA05124260C3
:10260000C4614968C163036230BD0000002C014011
:1026100030B5026A22F480520262046A4268C369D9
:102620000D6823F4E64343EA05238D6824F400543F
:1026300044EA0534064DA84204D14D6922F4804293
:1026400042EA85124260C36149680164046230BD98
:10265000002C014010B5036A046A24F001040462EE
:10266000846924F0F00444EA021423F00A020A43C5
:102670008461026210BD10B5036A23F01003036287
:102680008369046A23F4704343EA023224F0A0030E
:1026900043EA01118261016210BD10B5406A002158
:1026A000C185C184FFF753FB10BD70B5446A206833
:1026B000406994F83910C0F3C0100025212904D1D5
:1026C00018B1E584204600F03FF82068406994F88E
:1026D0003A10C0F38010222904D118B1E5852046B4
:1026E00000F024F8E06B40F01000E0632046FFF7B4
:1026F0002EFB70BD10B50146406A0968096889065D
:102700000CD40021C18401684A6922F080024A6128
:102710000068C16841F04001C16010BDFFF79CFC3A
:1027200010BD10B5406AFFF798FC10BD0168CA687B
:1027300022F49072CA6001684A6922F001024A617B
:10274000202180F83A1070470168CA6822F0C00260
:10275000CA60202180F83910704710B590F83A10FF
:10276000222901D0022010BD8168B1F5805F11D00F
:102770000169002901681FD0496801F07F03816A5F
:102780004A1C82620B70C18D491E0904090CC18567
:1027900018D02BE00269816A002A0268526805D0CD
:1027A000D2B20A80816A491C8162ECE7C2F3080256
:1027B0000A80816A891CF7E74A68816A4B1C836238
:1027C0000A70E0E70168CA6822F02002CA60016866
:1027D000CA6822F48072CA6001684A6922F0010264
:1027E0004A61202180F83A10FFF7F5FB002010BD68
:1027F0002DE9F041044600680169E26821F4405186
:10280000114301612169A068084361690843216897
:10281000CA6841F20C639A430243CA602068416966
:10282000A26921F44071114341611E492068642569
:102830003226884202D1FEF7EBFD01E0FEF7D8FD1B
:1028400000EBC00101EB001160686FF01807800019
:10285000B1FBF0F2B2FBF5F2B1FBF0F37A4303EB1C
:102860008202B1FBF0F306EB0212B2FBF5F2B3FB0E
:10287000F5F302F0F00202EB0312B1FBF0F3B1FB4F
:10288000F0F0B0FBF5F0784303EB800006EB0010AE
:10289000B0FBF5F0216800F00F0010448860BDE83F
:1028A000F08100000038014090F83910212901D052
:1028B000022070478168B1F5805F016A0BD04A1C25
:1028C0000262026809785160C18C491E0904090C32
:1028D000C1840ED017E009880268C1F30801516075
:1028E00001690029016A02D0491C0162ECE7891CD8
:1028F000FBE70168CA6822F08002CA600068C1680C
:1029000041F04001C1600020704700000148FFF71E
:102910001FBA000020010020FEE7490050EAC12054
:1029200018BF04204A0D18BF40F0010040F2FF72AA
:10293000B2EB515F08BF40F00200012808BF05203C
:1029400070470907090E002804DB00F1E02080F839
:102950000014704700F00F0000F1E02080F8141D13
:10296000704700002DE9F74F144694B00021C4E9E8
:1029700002111599079121F00045C9498D4206DCE5
:102980001599C4E9000117B00020BDE8F08FC549D2
:10299000DFF814A3A9423CDD0799C44E0029C44FB7
:1029A000C44A1599534619DDFDF753FD554506D028
:1029B000C14AC24BFDF74DFDC4E900010AE04FF0EA
:1029C000D352BE4BFDF745FD32463B46FDF741FD78
:1029D000C4E9000117B00120BDE8F08FFDF798FCB5
:1029E000554506D0B44AB54BFDF792FCC4E9000149
:1029F0000AE04FF0D352B14BFDF78AFC32463B461A
:102A0000FDF786FCC4E9000117B04FF0FF30BDE8C8
:102A1000F08FAB49A942159978DB21F0004183463C
:102A20008846A84AA84BFDF71AFD0022A74BFDF7E0
:102A30006FFCFDF7A8FF0990FDF717FE06460F464D
:102A40009C4A5346FDF70BFD43465A46FDF704FDED
:102A500080468A46984A994B30463946FDF7FFFC36
:102A60002A0D01250B9242465346FDF7F5FC032D36
:102A7000C4E9000139D00B98C1F30A51401A05EBA3
:102A800045111139814230DA9148C346784400EB50
:102A90000510CDF80CA00C90D0E900233046394643
:102AA000FDF7DDFC02460B4604910690584603995B
:102AB000FDF7CFFC80468A4602460B4658460399EE
:102AC000FDF7C7FC049B069AFDF7C3FC83460C98F0
:102AD00003913946D0E902233046FDF7C0FC5A463F
:102AE000039BFDF7B6FC6D1CBDE707980028A2BF4D
:102AF000099817B0BDE8F08F616881F0004161600E
:102B0000099817B04042BDE8F08FFFE7844615985A
:102B1000C1F31301C0F30A50A0F2F5304FEA601878
:102B200000F01F06C6F120001390002006900790C9
:102B300041F4801E05206D4676B1664A08EB00011F
:102B40007A4452F8213002EB8101B3404A6813996C
:102B500022FA01F1194305E05F4908EB00027944CC
:102B600051F82210A1FB0E27A1FB0C131A449A4224
:102B700034BF0123002303EB070A05EB8003D3E9ED
:102B800001B70F448F4234BF0121002193448B448D
:102B900011B1934502D903E0934501D2012100E030
:102BA0000021C3E901B7514445F82010011EA0F1EE
:102BB0000100C1DC0298059F00F10050800F1290C7
:102BC0000298DDE903568000FDF74FFD8346284655
:102BD0000D91FDF7CBFE6FF01D02FDF721FDCDE954
:102BE0000E013046FDF7C2FE6FF03D02FDF718FD05
:102BF00080468A463846FDF7B9FE6FF05D02FDF764
:102C00000FFD0746424653461191FDF781FBDDE972
:102C10000E23FDF77DFB5A460D9BFDF779FB002542
:102C20000E465A4628460D9BFDF713FCDDE90E23A0
:102C3000FDF70FFC42465346FDF70BFC3A46119B4D
:102C4000FDF70AFCDFF898A0244A5346FDF707FC7D
:102C500007468846234A244B31462846FDF7FFFBAA
:102C60003A464346FDF754FB074688464FF0A842D4
:102C7000534631462846FDF7F2FB3A464346FDF7F8
:102C800047FB159A12F0004F04D0129A81F00041D0
:102C900052421292C4E90001129817B0BDE8F08FB9
:102CA000FB21E93F7CD90240FB21F93F7370032EE1
:102CB0008A19A33B000040543163621A61B4D03DCD
:102CC000FB21394183C8C96D305FE43F0000E03F1C
:102CD000800A0000FC090000DE090000182D4454A1
:102CE000FB21F93D3326A611460B113C2DE9FF4D82
:102CF00021F0004807460C46B8F1795F08DAFDF785
:102D000042FE002801BF0020324904B0BDE8F08D2A
:102D10003A46234610461946FDF7A1FB05460246F2
:102D20002D480E460B460621784400F05DF82A46F1
:102D30003346FDF794FBDDE9022382468B46384695
:102D40002146FDF78CFB04460F4652465B4628465B
:102D50003146FDF784FB22463B46FDF77AFB0746EA
:102D60008A464FF0FF3228463146FDF759FC1B4A90
:102D700090450ADA3A465346FDF76BFB04B0002251
:102D8000BDE8F04D134BFDF767BB154A4245A8BFA0
:102D9000A8F500154FF00004B8BF124D22462B468F
:102DA000FDF757FB0646884622462B460020094978
:102DB000FDF74FFB04460D463A4653463046414622
:102DC000FDF747FB04B022462B46BDE8F04DFDF76A
:102DD00043BB00000000F03FB40700003333D33F93
:102DE0000000E93F0000D23F2DE9F0414F1E00EB0B
:102DF000C7010446D1E9000115461E4637F0060218
:102E00000DD02A463346FDF72AFB7F1E04EBC7038D
:102E1000D3E90023FDF77CFA37F00602F1D1022F47
:102E200025D0042F13D0062F18BFBDE8F0812A4605
:102E30003346FDF714FBD4E90A23FDF769FA2A4665
:102E40003346FDF70CFBD4E90823FDF761FA2A4667
:102E50003346FDF704FBD4E90623FDF759FA2A4669
:102E60003346FDF7FCFAD4E90423FDF751FA2A466C
:102E70003346FDF7F4FAD4E90223FDF749FA2A466E
:102E80003346FDF7ECFAD4E90023BDE8F041FDF745
:102E90003FBA00002DE9FF4D054621F0004084B007
:102EA0000C46B0F1795F0BDA2846FFF736FD0428AF
:102EB00008BF00F0ADF9284608B02146BDE8F08D06
:102EC0002A460B461046FDF7CAFA06460F462A4622
:102ED0002346FDF7C4FA804626488A4632463B46DA
:102EE00005217844FFF780FF83461098029160B374
:102EF000214A224B40465146FDF7B1FACDE9000187
:102F00005A4640465146029BFDF7A9FA824688463A
:102F1000DDE906014FF0FF32FDF782FB52464346E2
:102F2000FDF797FA32463B46FDF799FADDE90623AD
:102F3000FDF78FFADDE90023FDF78BFA08B02A468A
:102F40002346BDE8F04DFDF787BA0B465A4630469A
:102F50003946FDF784FA084A084BFDF7D9F942468D
:102F60005346FDF77CFA08B02A462346BDE8F04DEB
:102F7000FDF7CEB9F2060000495555555555C5BF68
:102F80002DE9F04D04468CB0904821F000471646DC
:102F900098460D460991874206DA20462946FDF7F4
:102FA000F2FC002800F0AE808948B8421CDC099889
:102FB0000028BCBF85F0004588F00048854A864B54
:102FC00020462946FDF748FA04460D463246434658
:102FD00082488349FDF73DFA22462B46FDF798F9D2
:102FE000002604460D46B04622462B46104619469A
:102FF000FDF735FA8B46824602460B46FDF72FFA5F
:103000000246089077480B46009106217844FFF766
:10301000EBFECDE90310744806217844009B089A22
:10302000FFF7E2FE52465B46FDF719FACDE90510BF
:1030300052465B4620462946FDF711FA079100905B
:10304000DDE90310DDE90532FDF762F9079B009A1F
:10305000FDF705FA32464346FDF75AF952465B46FC
:10306000FDF7FDF932464346FDF752F980460E461C
:103070005E4A5F4B07990098FDF7F1F942463346E7
:10308000FDF746F982468B4622462B46FDF740F96E
:1030900080464F480E46B84214985BDCFDF7E5FACF
:1030A0000746424633460591FDF732F9CDE9011056
:1030B0004246334610461946FDF7D1F9DDE90132A3
:1030C000FDF73FFA52465B46FDF7C3F922462B4611
:1030D000FDF7C2F90122FDF7A3FA3A46059BFDF779
:1030E000BBF904460D460998022101EAA070C0F11F
:1030F0000100FDF7BAFA0CB022462B46BDE8F04DB0
:10310000FDF7ADB91498401C384320430BD01498F8
:10311000012812D00CB022462B46BDE8F04D00200D
:103120003449FDF70EBA0CB025F000432246BDE845
:10313000F04D00203049FDF704BA20462946FFF73C
:10314000ECFB042808BF00F063F820460CB02946C9
:10315000BDE8F08D012802BF40460CB0BDE8F08DFF
:1031600000270B463A4620462946FDF775F9524698
:103170005B46FDF771F904460D4642463346002092
:103180001C49FDF7DEF983463A4688463346104629
:10319000FDF765F90022184BFDF7BAF806468A4696
:1031A00022462B4638464146FDF759F932465346EA
:1031B000FDF7AEF85A464346FDF751F90CB03A46D2
:1031C0004346BDE8F04DFDF7A3B800000000303ED7
:1031D0002894E53F182D4454FB21E93F075C143344
:1031E00026A6813CF00500001206000063555555E7
:1031F0005555D53F0000F0BF0000F03F0122FDF71C
:103200000FBA0022134610461146FDF79AB9000086
:10321000024A00201107FDF703BA000001FDFFFF7D
:1032200002E008C8121F08C1002AFAD1704770478F
:10323000002001E001C1121F002AFBD170470000ED
:1032400001490860704700003C00002000B5244B95
:1032500021F0004287B09A42DCBF0022134629DDEC
:10326000204B9A4208D140B94FF00100FFF7E8FF28
:10327000FFF7C7FF07B000BD03DBFFF7BFFF07B0D5
:1032800000BD02AAFFF76EFB10F0030104BF0DF1B1
:10329000080C9CE80F000DD0012001290ED0022956
:1032A00014D00DF1080C00909CE80F00FFF7F2FD20
:1032B00007B000BDFFF71AFD07B000BD0DF1080C07
:1032C00000909CE80F00FFF7E5FD05E00DF1080C0C
:1032D0009CE80F00FFF70AFD07B081F0004100BD38
:1032E000FB21E93F0000F07F70B50D4C2068606065
:1032F000FDF7E0F90B4A0C4BFDF7B1F806460D4619
:10330000FDF792FCFDF7D6F9084A094BFDF7A7F83F
:1033100032462B46FCF7FCFFFDF7DFF9206070BD5D
:1033200040000020CDCCCCCCCCCCEC3F9A999999E4
:103330009999B93F3248334C08B500F11005A0F512
:10334000967661C464E80705FDF72CFFFFF72DF8BA
:10335000FEF786FE2C48416941F001014161406958
:10336000002200F00100009011460E20FDF778FFCA
:103370000E20FDF767FFFEF707FFFEF7DDFEA5F164
:103380005C00224901604FF4E1314160002181601D
:103390000C22C160C0E904128161C161FEF760FDC9
:1033A000FEF79EFE0421A5F19C00FEF78FFC012292
:1033B00010211748FDF7E3FE4FF4FA70FDF7D8FD32
:1033C000FDF732FC3060A5F58E70FEF78DFA3022E5
:1033D000A5F15C00216AFEF7D5FD688838B10128A7
:1033E00008D0022809D0FDF71FFC3060F5E7FEF792
:1033F0000BFFF2E7FEF72AFFEFE7FDF7E3FAECE752
:103400006C01002010000020001002400038014034
:10341000000801402DE9F04106460F46FDF743FA4A
:10342000041E0D4618BF0120284320F00040C0F1C3
:103430007F6000F1E040C00F0ED0301C18BF0120AB
:10344000384320F00040C0F17F6000F1E040C00F41
:1034500004BF0120FFF7F4FE20462946BDE8F081B5
:1034600010B5164B21F00042012486B09A4203DCCD
:103470000022134600941CE0114B9A4208D140B937
:103480004FF00100FFF7DCFEFFF7BBFE06B010BDFA
:1034900003DBFFF7B3FE06B010BD02AAFFF762FA26
:1034A00000F00100A4EB40000DF1080C00909CE836
:1034B0000F00FFF765FD06B010BD0000FB21E93FDE
:1034C0000000F07F00000000000000000102030483
:1034D00006070809000000000102030400000000C4
:1034E0004C5555555555A53F7751C1166CC156BF22
:1034F0009015CB19A001FA3EAD529C804F7E92BE32
:10350000C4B1B4BD9EEE213ED43888BEE9FAA8BD50
:1035100000004054FB21F93F3163621A61B4D03D91
:103520000000601A61B4D03D7370032E8A19A33B6A
:103530000000002E8A19A33BC14920259A837B39BC
:1035400000000000000000006E83F9A22915444E1F
:10355000D15727FCC0DD34F5999562DB4190433C9F
:10356000AB6351FE61C5BBDE3A6E24B7E0D24D427B
:10357000EA2E49061C92D1091CEB1DFE3EA729B17B
:10358000F53582E88444BB2E26709CE9417E5FB409
:1035900039D69139F43953838B5F849C3B28F9BD2C
:1035A000FF97F81F0F9805DE8B112FEF1F6D0A5A3A
:1035B000CF7E366DB709CB27663F464F2DEA5F9E1B
:1035C000C7BA27757BF1E5EBF739073DEA92528AD6
:1035D000B15FFB6B085D8D1FA6F810111111813FC3
:1035E000D561C119A0012ABF7DFEB157E31DC73EB9
:1035F000EB9C2B8AE6E55ABE7CD5CF5A3AD9E53DFD
:103600007AFE10111111C13F37D60684F464963F3B
:10361000280356C9226D6D3F0165F2F2D844433F3D
:10362000A69237A0887E143F735360DBCB75F3BE40
:10363000FE41B31BBAA1AB3F93846EE9E326823F00
:103640001583E0FEC8DB573F68108D1AF726303F20
:10365000E9A7F0320FB8123FD47ABF74702AFB3E4C
:1036600080360008000000204000000020320008E2
:10367000C0360008400000209805000030320008E5
:103680000100000001000000000000000000000038
:10369000000000000000000000000000000000002A
:1036A0000000000000000000000000000100000019
:1036B00010000000000000000024F40000000000E2
:04000005080000ED02
:00000001FF
